{
  "contractName": "PaymentProcessor",
  "abi": [
    {
      "inputs": [],
      "stateMutability": "nonpayable",
      "type": "constructor"
    },
    {
      "anonymous": false,
      "inputs": [
        {
          "indexed": false,
          "internalType": "address",
          "name": "payer",
          "type": "address"
        },
        {
          "indexed": false,
          "internalType": "uint256",
          "name": "amount",
          "type": "uint256"
        },
        {
          "indexed": false,
          "internalType": "bytes32",
          "name": "paymentId",
          "type": "bytes32"
        },
        {
          "indexed": false,
          "internalType": "uint256",
          "name": "date",
          "type": "uint256"
        },
        {
          "indexed": false,
          "internalType": "address",
          "name": "tokenAddress",
          "type": "address"
        }
      ],
      "name": "PaymentProcessed",
      "type": "event"
    },
    {
      "inputs": [],
      "name": "owner",
      "outputs": [
        {
          "internalType": "address",
          "name": "",
          "type": "address"
        }
      ],
      "stateMutability": "view",
      "type": "function",
      "constant": true
    },
    {
      "inputs": [
        {
          "internalType": "bytes32",
          "name": "",
          "type": "bytes32"
        }
      ],
      "name": "paymentTokens",
      "outputs": [
        {
          "internalType": "address",
          "name": "",
          "type": "address"
        }
      ],
      "stateMutability": "view",
      "type": "function",
      "constant": true
    },
    {
      "inputs": [
        {
          "internalType": "bytes32",
          "name": "",
          "type": "bytes32"
        }
      ],
      "name": "payments",
      "outputs": [
        {
          "internalType": "bool",
          "name": "",
          "type": "bool"
        }
      ],
      "stateMutability": "view",
      "type": "function",
      "constant": true
    },
    {
      "inputs": [
        {
          "internalType": "bytes32",
          "name": "paymentId",
          "type": "bytes32"
        }
      ],
      "name": "processPayment",
      "outputs": [],
      "stateMutability": "payable",
      "type": "function",
      "payable": true
    },
    {
      "inputs": [
        {
          "internalType": "bytes32",
          "name": "paymentId",
          "type": "bytes32"
        }
      ],
      "name": "getPaymentStatus",
      "outputs": [
        {
          "internalType": "bool",
          "name": "",
          "type": "bool"
        }
      ],
      "stateMutability": "view",
      "type": "function",
      "constant": true
    },
    {
      "inputs": [
        {
          "internalType": "bytes32",
          "name": "paymentId",
          "type": "bytes32"
        }
      ],
      "name": "getPaymentToken",
      "outputs": [
        {
          "internalType": "address",
          "name": "",
          "type": "address"
        }
      ],
      "stateMutability": "view",
      "type": "function",
      "constant": true
    },
    {
      "inputs": [],
      "name": "withdraw",
      "outputs": [],
      "stateMutability": "nonpayable",
      "type": "function"
    }
  ],
  "bytecode": "0x608060405234801561001057600080fd5b50600080546001600160a01b031916331790556103f6806100326000396000f3fe6080604052600436106100705760003560e01c80633ccfd60b1161004e5780633ccfd60b1461011d5780638da5cb5b14610132578063e4f8434614610152578063f0013c031461018857600080fd5b80630716326d14610075578063240d1a1e146100ba5780633a74717d14610108575b600080fd5b34801561008157600080fd5b506100a56100903660046103a7565b60016020526000908152604090205460ff1681565b60405190151581526020015b60405180910390f35b3480156100c657600080fd5b506100f06100d53660046103a7565b6002602052600090815260409020546001600160a01b031681565b6040516001600160a01b0390911681526020016100b1565b61011b6101163660046103a7565b6101b8565b005b34801561012957600080fd5b5061011b610306565b34801561013e57600080fd5b506000546100f0906001600160a01b031681565b34801561015e57600080fd5b506100f061016d3660046103a7565b6000908152600260205260409020546001600160a01b031690565b34801561019457600080fd5b506100a56101a33660046103a7565b60009081526001602052604090205460ff1690565b6000341161021b5760405162461bcd60e51b815260206004820152602560248201527f5061796d656e7420616d6f756e74206d75737420626520677265617465722074604482015264068616e20360dc1b60648201526084015b60405180910390fd5b60008181526001602052604090205460ff16156102855760405162461bcd60e51b815260206004820152602260248201527f5061796d656e742068617320616c7265616479206265656e2070726f63657373604482015261195960f21b6064820152608401610212565b6000818152600160208181526040808420805460ff19169093179092556002815281832080546001600160a01b0319169055815133815234918101919091528082018490524260608201526080810192909252517f5abef9cdc1c8de78e311588f8b9b1021ff3e8cb34733291a0b841f95aeee8c139181900360a00190a150565b6000546001600160a01b0316331461036a5760405162461bcd60e51b815260206004820152602160248201527f4f6e6c79206f776e65722063616e2063616c6c20746869732066756e6374696f6044820152603760f91b6064820152608401610212565b600080546040516001600160a01b03909116914780156108fc02929091818181858888f193505050501580156103a4573d6000803e3d6000fd5b50565b6000602082840312156103b957600080fd5b503591905056fea26469706673582212208e396c440940dbb99d21a07e20fba2c3eab2196b792fd37745147cebfcfc221b64736f6c634300080d0033",
  "immutableReferences": {},
  "source": "// SPDX-License-Identifier: MIT\npragma solidity ^0.8.13;\n\ncontract PaymentProcessor {\n    address public owner;\n    mapping(bytes32 => bool) public payments;\n    mapping(bytes32 => address) public paymentTokens;\n    \n    event PaymentProcessed(\n        address payer,\n        uint256 amount,\n        bytes32 paymentId,\n        uint256 date,\n        address tokenAddress\n    );\n\n    constructor() {\n        owner = msg.sender;\n    }\n    \n    modifier onlyOwner() {\n        require(msg.sender == owner, \"Only owner can call this function\");\n        _;\n    }\n    \n    // Native ETH payment processing\n    function processPayment(bytes32 paymentId) external payable {\n        require(msg.value > 0, \"Payment amount must be greater than 0\");\n        require(!payments[paymentId], \"Payment has already been processed\");\n\n        payments[paymentId] = true;\n        paymentTokens[paymentId] = address(0); // ETH payment\n        \n        emit PaymentProcessed(\n            msg.sender,\n            msg.value,\n            paymentId,\n            block.timestamp,\n            address(0)\n        );\n    }\n\n    function getPaymentStatus(bytes32 paymentId) external view returns (bool) {\n        return payments[paymentId];\n    }\n    \n    function getPaymentToken(bytes32 paymentId) external view returns (address) {\n        return paymentTokens[paymentId];\n    }\n\n    // Basic withdrawal function\n    function withdraw() external onlyOwner {\n        payable(owner).transfer(address(this).balance);\n    }\n}\n",
  "sourcePath": "C:\\Blockchain projects\\Ecommerce-MERN\\blockchain\\contracts\\PaymentProcessor.sol",
  "compiler": {
    "name": "solc",
    "version": "0.8.13+commit.abaa5c0e.Emscripten.clang"
  },
  "schemaVersion": "3.4.14",
  "updatedAt": "2025-07-09T06:31:09.614Z",
  "networkType": "ethereum",
  "devdoc": {
    "kind": "dev",
    "methods": {},
    "version": 1
  },
  "userdoc": {
    "kind": "user",
    "methods": {},
    "version": 1
  }
}