{
  "contractName": "PaymentProcessor",
  "abi": [
    {
      "inputs": [],
      "stateMutability": "nonpayable",
      "type": "constructor"
    },
    {
      "anonymous": false,
      "inputs": [
        {
          "indexed": false,
          "internalType": "address",
          "name": "payer",
          "type": "address"
        },
        {
          "indexed": false,
          "internalType": "uint256",
          "name": "amount",
          "type": "uint256"
        },
        {
          "indexed": false,
          "internalType": "bytes32",
          "name": "paymentId",
          "type": "bytes32"
        },
        {
          "indexed": false,
          "internalType": "uint256",
          "name": "date",
          "type": "uint256"
        }
      ],
      "name": "PaymentProcessed",
      "type": "event"
    },
    {
      "inputs": [],
      "name": "owner",
      "outputs": [
        {
          "internalType": "address",
          "name": "",
          "type": "address"
        }
      ],
      "stateMutability": "view",
      "type": "function",
      "constant": true
    },
    {
      "inputs": [
        {
          "internalType": "bytes32",
          "name": "",
          "type": "bytes32"
        }
      ],
      "name": "payments",
      "outputs": [
        {
          "internalType": "bool",
          "name": "",
          "type": "bool"
        }
      ],
      "stateMutability": "view",
      "type": "function",
      "constant": true
    },
    {
      "inputs": [
        {
          "internalType": "bytes32",
          "name": "paymentId",
          "type": "bytes32"
        }
      ],
      "name": "processPayment",
      "outputs": [],
      "stateMutability": "payable",
      "type": "function",
      "payable": true
    },
    {
      "inputs": [
        {
          "internalType": "bytes32",
          "name": "paymentId",
          "type": "bytes32"
        }
      ],
      "name": "getPaymentStatus",
      "outputs": [
        {
          "internalType": "bool",
          "name": "",
          "type": "bool"
        }
      ],
      "stateMutability": "view",
      "type": "function",
      "constant": true
    },
    {
      "inputs": [],
      "name": "withdraw",
      "outputs": [],
      "stateMutability": "nonpayable",
      "type": "function"
    }
  ],
  "bytecode": "0x608060405234801561001057600080fd5b50600080546001600160a01b03191633179055610340806100326000396000f3fe60806040526004361061004a5760003560e01c80630716326d1461004f5780633a74717d146100945780633ccfd60b146100a95780638da5cb5b146100be578063f0013c03146100f6575b600080fd5b34801561005b57600080fd5b5061007f61006a3660046102f1565b60016020526000908152604090205460ff1681565b60405190151581526020015b60405180910390f35b6100a76100a23660046102f1565b610126565b005b3480156100b557600080fd5b506100a761025a565b3480156100ca57600080fd5b506000546100de906001600160a01b031681565b6040516001600160a01b03909116815260200161008b565b34801561010257600080fd5b5061007f6101113660046102f1565b60009081526001602052604090205460ff1690565b600034116101895760405162461bcd60e51b815260206004820152602560248201527f5061796d656e7420616d6f756e74206d75737420626520677265617465722074604482015264068616e20360dc1b60648201526084015b60405180910390fd5b60008181526001602052604090205460ff16156101f35760405162461bcd60e51b815260206004820152602260248201527f5061796d656e742068617320616c7265616479206265656e2070726f63657373604482015261195960f21b6064820152608401610180565b600081815260016020818152604092839020805460ff1916909217909155815133815234918101919091529081018290524260608201527f718e0bac283d8f9b5e465bda8f61e8ac385b81142017fc4ea3fc8bb3b242c6b39060800160405180910390a150565b6000546001600160a01b031633146102b45760405162461bcd60e51b815260206004820152601760248201527f4f6e6c79206f776e65722063616e2077697468647261770000000000000000006044820152606401610180565b600080546040516001600160a01b03909116914780156108fc02929091818181858888f193505050501580156102ee573d6000803e3d6000fd5b50565b60006020828403121561030357600080fd5b503591905056fea2646970667358221220b109a8a5b2761df9adbcb990d0b37c2f227af855a66329d893c29b6e9623614964736f6c63430008130033",
  "immutableReferences": {},
  "source": "// SPDX-License-Identifier: MIT\npragma solidity ^0.8.0;\n\ncontract PaymentProcessor {\n    address public owner;\n    mapping(bytes32 => bool) public payments;\n\n    event PaymentProcessed(\n        address payer,\n        uint256 amount,\n        bytes32 paymentId,\n        uint256 date\n    );\n\n    constructor() {\n        owner = msg.sender;\n    }\n\n    function processPayment(bytes32 paymentId) external payable {\n        require(msg.value > 0, \"Payment amount must be greater than 0\");\n        require(!payments[paymentId], \"Payment has already been processed\");\n\n        payments[paymentId] = true;\n        \n        emit PaymentProcessed(\n            msg.sender,\n            msg.value,\n            paymentId,\n            block.timestamp\n        );\n    }\n\n    function getPaymentStatus(bytes32 paymentId) external view returns (bool) {\n        return payments[paymentId];\n    }\n\n    function withdraw() external {\n        require(msg.sender == owner, \"Only owner can withdraw\");\n        payable(owner).transfer(address(this).balance);\n    }\n}\n",
  "sourcePath": "C:\\Blockchain projects\\Ecommerce-MERN\\blockchain\\contracts\\PaymentProcessor.sol",
  "compiler": {
    "name": "solc",
    "version": "0.8.19+commit.7dd6d404.Emscripten.clang"
  },
  "schemaVersion": "3.4.16",
  "updatedAt": "2025-03-28T12:41:33.657Z",
  "networkType": "ethereum",
  "devdoc": {
    "kind": "dev",
    "methods": {},
    "version": 1
  },
  "userdoc": {
    "kind": "user",
    "methods": {},
    "version": 1
  }
}